:020000000328D3
:1000060083120313A20183168601FF308800831230
:1000160006148610081C39288030A21B7F30F00099
:1000260080307002031D1928FA302202031839287D
:100036000B30FB002630FC005D30FD00FD0B212857
:10004600FC0B2128FB0B212800000000081C392886
:100056008030A21B7F30F00080307002031D3528EF
:10006600FA302202031839280A30A207881C5D28B4
:100076008030003AF00080302206700203185D28B6
:100086000B30FB002630FC005D30FD00FD0B4928DF
:10009600FC0B4928FB0B492800000000881C5D2842
:1000A6008030003AF00080302206700203185D2886
:0800B6000A30A2020D285E28A9
:02400E004A2F37
:00000001FF
