:020000001628C0
:0E000600831203132B088A002A0882000800C8
:1000140003208A110A128000840AAA0A0319AB0A6F
:08002400F003031D0A28080087
:10002C00C03083120313A000F930A100A430A20049
:10003C00B030A3009930A4009230A5008230A60005
:10004C00F830A7008030A8009030A90083168601F4
:10005C00FF3083128600F101F2018030F000803015
:10006C0072067002031D3C287108093C031C5528BC
:10007C007108203E8400000886000630FB00133017
:10008C00FC00AD30FD00FD0B4928FC0B4928FB0B97
:10009C00492800000000F10A0319F20A332831281C
:0200AC005628D4
:02400E004A2F37
:00000001FF
