:020000007B285B
:1000060083120313F101F20180307206F000803092
:100016007002031D10283230710203182B280614B3
:100026000330FC001230FD00FD0B1728FC0B1728CF
:10003600000006103230FC00DD30FD00FD0B2128EB
:10004600FC0B212800000000F10A0319F20A072818
:020056000800A0
:1000580083120313F101F20100307202031D3628E6
:10006800323071020318512806140630FC00B530EE
:10007800FD00FD0B3D28FC0B3D280000000006108C
:100088002F30FC003A30FD00FD0B4828FC0B4828B7
:0C0098000000F10A0319F20A30280800E9
:1000A40083120313F101F20180307206F0008030F4
:1000B4007002031D5F283230710203187A28061477
:1000C4000430FC00E430FD00FD0B6628FC0B6628C0
:1000D400000006103130FC000B30FD00FD0B7028D1
:1000E400FC0B702800000000F10A0319F20A5628DC
:0200F400080002
:1000F6008316031386018312860103201530FB0045
:100106004B30FC00BE30FD00FD0B8728FC0B87281A
:10011600FB0B8728000052201530FB004B30FC00FB
:10012600BE30FD00FD0B9528FC0B9528FB0B952892
:1001360000002C201530FB004B30FC00BE30FD00CB
:10014600FD0BA328FC0BA328FB0BA328000080288B
:02015600AB28D4
:02400E004A2F37
:00000001FF
