:020000001628C0
:0E000600831203132B088A002A0882000800C8
:1000140003208A110A128000840AAA0A0319AB0A6F
:08002400F003031D0A28080087
:10002C00C03083120313A000F930A100A430A20049
:10003C00B030A3009930A4009230A5008230A60005
:10004C00F830A7008030A8009030A900AC01AD01B9
:10005C008316860183128601FF3083168800831273
:10006C00081C5F2880302D06F00080307002031DC4
:10007C00412809302C0203185F280330FB0008309C
:10008C00FC007730FD00FD0B4928FC0B4928FB0BCD
:10009C004928081C5F2880302D06F0008030700243
:1000AC00031D5A2809302C0203185F28AC0A0319C7
:1000BC00AD0A881C89288030F00080302D06700233
:1000CC00031D6A282C08003C031889280330FB0008
:1000DC000830FC007730FD00FD0B7228FC0B7228F9
:1000EC00FB0B7228881C89288030F00080302D068C
:1000FC007002031D83282C08003C0318892801304A
:10010C00AC02031CAD032C08203E840000088600C2
:04011C0035288F28CB
:02400E004A2F37
:00000001FF
