:020000000328D3
:10000600831603138801FF308312880003308800AB
:100016000B30FB002630FC005D30FD00FD0B112887
:10002600FC0B1128FB0B112800000000063088008D
:100036000B30FB002630FC005D30FD00FD0B212857
:10004600FC0B2128FB0B2128000000000330880050
:100056000B30FB002630FC005D30FD00FD0B312827
:10006600FC0B3128FB0B3128000000000C30880007
:100076000B30FB002630FC005D30FD00FD0B4128F7
:10008600FC0B4128FB0B41280000000009308800CA
:100096000B30FB002630FC005D30FD00FD0B5128C7
:1000A600FC0B5128FB0B51280000000009285A2898
:02400E004A2F37
:00000001FF
