:020000000328D3
:10000600831603138801FF308312880003308800AB
:100016001530FB004B30FC00BE30FD00FD0B1128F7
:10002600FC0B1128FB0B1128000006308800153048
:10003600FB004B30FC00BE30FD00FD0B2028FC0B06
:100046002028FB0B20280000033088001530FB0019
:100056004B30FC00BE30FD00FD0B2F28FC0B2F287B
:10006600FB0B2F2800000C3088001530FB004B30AE
:10007600FC00BE30FD00FD0B3E28FC0B3E28FB0BB2
:100086003E280000093088001530FB004B30FC008C
:10009600BE30FD00FD0B4D28FC0B4D28FB0B4D28FB
:0600A600000009285528A6
:02400E004A2F37
:00000001FF
