:02000000CD2D04
:06000600000000000800EC
:0E000C00213083120313FD00FD0B0A280800AB
:10001A000F3083120313FC004730FD00FD0B132839
:0A002A00FC0B132800000000080082
:0E003400F201F101F001F801F30100300800C3
:10004200FB14FB1F2B28FF30F300F200F100F0003D
:08005200FA0DF20CFF3008006A
:10005A0083120313E21B3328861334288617621B84
:10006A003828061339280617E21A3D2886123E2830
:10007A008616621A42280612432806164718472887
:10008A00061548280611861503208611E2194F28FD
:10009A0086135028861762195428061355280617FE
:1000AA00E218592886125A28861662185E280612FD
:1000BA005F28061647186328061564280611861550
:1000CA0003208611471C6B280D206C280620080087
:1000DA007B15FB1F77280130F300F201F101F001D3
:0800EA00FA0DF20CFF300800D2
:0800F200FA1FF21300300800B0
:1000FA008312031347106008E2002D2047140800FA
:10010A00831203136008F2007208F100F20A610810
:10011A00F000E10A700884000008F0007108840009
:10012A007008800071088400000803199D28892836
:06013A006008F00008005F
:1001400083120313FD01F8017008031900347406CB
:10015000FA00FA1BFD09FB01F41FB028F409F40AA8
:10016000F01FB428F009F00A70087404FA00FA1BB2
:10017000D8287408F802F00D700DF80D7408F8070F
:10018000F00D0630FC00700DF80D74087018F802C0
:10019000701CF807F00DFC0BC328701CF8077B18C7
:1001A000E628FD1F0034F009F00AF809F80A0034C7
:1001B000F41FE328F01BE0287008F800F001D128B4
:1001C000F001F00A0034F009FB0AB928F80A7408B3
:1001D0007802031DD128F801F00AF01FD128FF345E
:0201E000080015
:1001E2000E3083120313FD00FD0BF52800000800FA
:0E01F2008312031346088A00450882000800A5
:1002000083120313FB017308031D77080319572991
:1002100072087606FA007708F3077E30031C14296B
:10022000F30203185A291729F302031C5D297208E7
:10023000F8007108FC007008FD00F817F6170310AD
:10024000F201F101F0011830A0007D1C3129740881
:10025000F00775080318750FF10776080318760F75
:10026000F207F20CF10CF00CF80CFC0CFD0C031076
:10027000A00B2529F21B4129F80DF00DF10DF20D0F
:10028000F3037B1B701C5329F81F5329F00A031931
:10029000F10A0319F20A031D5329F20CF10CF00CB8
:1002A000F30A03195A29FA1FF21300305F290130AB
:1002B0001A205F29023021205F2904306D200000C0
:0202C000080034
:1002C20083120313FA017308031D7A147708031DBE
:1002D200FA147A080319AD29033A031978297A180E
:1002E2007529F61FAB29A929F21FA929AB29720882
:1002F2008039FA00F21376088039F6137A06031968
:1003020086297A080319A929AB29770873020319E8
:100312008D29031CA129A5297608720203199429A3
:10032200031CA129A5297508710203199B29031C25
:10033200A129A529740870020319AD290318A5295A
:10034200FA080319AB29A929FA080319A929AB2923
:100352000314080003100800031403150800080022
:06036200FB15FF3008004E
:10036800A0017208031DC9297108F2007008F10084
:10037800F001A0157208031DC9297108F200F101E6
:10038800A011201672080319D7292008F302031DAB
:10039800031CDB290310F21BDF29F00DF10DF20D10
:1003A800F30BCF29DB290130FC001A20E2290230A7
:0E03B800FC006D20E2290430FC0079200800D2
:1003C60083120313D4015408530784000008031949
:1003D600F4295408530784000008E0007D20D40A5D
:0403E600E6290800FC
:1003EA00072A803083120313D3001A2AC030D3009D
:1003FA001A2A9430D3001A2AD430D3001A2A803009
:10040A00D3001A2A831203135308013A0319F6294F
:10041A005308023A0319FB295308033A0319FE2920
:10042A005308043A0319012A042A5403F000530812
:10043A00F0077008D30047147008E2002D20471017
:0A044A005508E2002D2047140800B9
:10045400831203139F01C0309F043109F000700818
:1004640083169F051F179F1783125308F000F00D82
:100474007010F00D7010F00D701070089F041F14B0
:10048400F1201F151F1D482A0000442A1F101E08B2
:10049400F100F00183161E08F0040030F104080096
:1004A400831203137408003A031D6D2A7508003A79
:1004B400031D6D2A7608003A031D6D2A7708003A59
:1004C400031D6D2AFF30F000FF30F1007F30F20091
:1004D400FF30F300082B8312031377080319FC2A57
:1004E40073080319FF2A720876068039FA00F21796
:1004F400F617A0017208F8007108FC007008FD00EE
:100504007408FD027508031C750FFC027608031CB1
:10051400760FF802F801FC01FD01031C982A031070
:10052400F20CF10CF00CF80C0130A0007708F30287
:10053400031CA22A7E302007F3070318022BA72AE4
:100544007E302007F307031C052B1830FA07FD0D36
:10055400FC0DF80DF00DF10DF20DA00D7408F00274
:100564007508031C750FF1027608031C760FF2025E
:10057400760DA004201CC02A7D14CB2A7408F00731
:1005840075080318750FF10776080318760AF20741
:100594007D10FA031F307A05031DA92A7B1B7D1CDD
:1005A400F22A0310F00DF10DF20DA00D7408F00203
:1005B4007508031C750FF1027608031C760FF2020E
:1005C400760D20040139FD070318FC0A0319F80A03
:1005D400031DF22AF80CFC0CFD0CF30A0319022B80
:1005E400FA1FF8137808F2007C08F1007D08F00087
:1005F4000030072B0130B121072B02301A20072BC2
:0E06040004302120072B08306D200000080074
:10061200831203137008F8007108F000F101F2016F
:10062200F301FB01FC019630F300FA017008F100BE
:0C0632007808F000F801F201B421080083
:10063E00FF3083120313C800FF30C900FF30CA0019
:10064E00FF309F01C0309F043109F00070088316FF
:0C065E009F051F179F1783121F14080030
:10066A00F9208A110A128000840AC50A0319C60AE7
:08067A00F003031D352B0800FD
:1006820083160313861106110612861206138613A9
:1006920083128611061186130613861206120D2086
:1006A2000D200D20861606168615032086110D20B4
:1006B2008615032086110D208615032086110D2034
:1006C20006128615032086110D2086150320861139
:1006D200861286178615032086110D2086130616AC
:1006E20086150320861106128615032086110D2019
:1006F20086150320861106168615032086110D2005
:100702000612861503208611861706178616061608
:0C0712008615032086110D2047140800F6
:10071E0083120313DE01DF015308DA005408DB00F5
:10072E005508DC005608DD005D08FF3A031DA92BB5
:10073E005C08FF3A031DA92B5B08FF3A031DA92B8A
:10074E005A08FF3A031DB32B5708E0002D30E10085
:10075E0085200330F0008C2D0130D800DC1FC22B19
:10076E0080305C06F0007008DC00D80A5708840060
:10077E002D308000D70A0030F0005D06031DD12B0E
:10078E0070085C06031DD12B70085B06031DD12B70
:10079E005A08003A031DDA2B5708E0003230E10008
:1007AE008520F0018C2D5D08FF3A031DE82B5C08B7
:1007BE00003A031DE82B5B08003A031DE82B5A088C
:1007CE00003A031DF22B5708E0003430E10085207B
:1007DE005808F0008C2D0030F4000030F500003089
:1007EE00F6007F30F7005A08F0005B08F1005C0855
:1007FE00F2005D08F3006121013003180030F000B3
:10080E0070080319252C5A08F0005B08F1005C08EB
:10081E00F2005D08F3000030F4000030F5002030E7
:10082E00F6008230F70000217008DA007108DB0054
:10083E007208DC007308DD00DF03F22B0030F400D9
:10084E000030F5002030F6008230F7005A08F00034
:10085E005B08F1005C08F2005D08F30061210130D5
:10086E00031C0030F00070080319582C5A08F000D1
:10087E005B08F1005C08F2005D08F300CD30F40077
:10088E00CC30F5004C30F6007B30F70000217008BC
:10089E00DA007108DB007208DC007308DD00DF0A85
:1008AE00252CFF305A05F800FF305B05F9007F302C
:1008BE005C05FA0000305D05FB007808F40079084D
:1008CE00F5007A08F6007B08F700F40DF50DF60D2D
:1008DE00F70D741000305A05F00000305B05F10082
:1008EE0000305C05F200FF305D05F3007008DA00A1
:1008FE007108DB007208DC007308DD0074085A040E
:10090E00F00075085B04F10076085C04F2007708CD
:10091E005D04F3007008DA007108DB007208DC0079
:10092E007308DD007F305D02F0007008D9000130E1
:10093E00DD007008F4005A08F0005B08F1005C0856
:10094E00F2005D08F30074080319B42CF00DF10DDC
:10095E00F20DF30D7010FF3EAB2C7008DA0071082B
:10096E00DB007208DC007308DD005D08303EF0002D
:10097E005708840070088000D70A80305F06F000A8
:10098E008030013A7002031CD52C8030063AF000FC
:10099E0080305F067002031CD52CDC2C57088400B7
:1009AE002E308000D70A0130DE000630D9005908FB
:1009BE00003A03193A2DDD015A08F0005B08F100E8
:1009CE005C08F2005D08F300F00DF10DF20DF30D71
:1009DE007010F00DF10DF20DF30D70105A08F007B6
:1009EE005B0803185B0FF1075C0803185C0FF20736
:1009FE005D0803185D0FF3077008DA007108DB005D
:100A0E007208DC007308DD005A08F0005B08F10084
:100A1E005C08F2005D08F300F00DF10DF20DF30D20
:100A2E0070107008DA007108DB007208DC007308C1
:100A3E00DD005D08303EF00057088400700880002D
:100A4E00D70A5E08003A031D382DDF035F08003A0F
:100A5E00031D382D570884002E308000D70A013030
:100A6E00DE00D903DE2CFF30570784000008303A31
:100A7E00031D432DD7033A2DFF305707840000087E
:100A8E002E3A031D4B2DD7035F08003A0319882D0C
:100A9E005708840065308000D70A80305F06F0006A
:100AAE008030003A70020318642D570884002D30F0
:100ABE008000D70A5F08003CDF005F08D900803055
:100ACE00093AF00080305F06700203187A2D0A3062
:100ADE00F4005908F000A0203030F00757088400C9
:100AEE0070088000D70A0A30F4005908F000A020E0
:100AFE007808F0003030F007570884007008800046
:0C0B0E00D70A570884008001F00108009D
:100B1A009F2D803083120313D300B22DC030D3002F
:100B2A00B22D9430D300B22DD430D300B22D803000
:100B3A00D300B22D831203135308013A03198E2DE1
:100B4A005308023A0319932D5308033A0319962DB1
:100B5A005308043A0319992D9C2D5403F0005308A5
:100B6A00F0077008D3007008E2002D204710D60164
:100B7A0056085507840000080319CB2D5608550757
:100B8A0084000008E0007D20D60ABD2D4714080025
:100B9A0076260630831603139F0007309C001F2316
:100BAA0041230130E2002D200130D3000630D40069
:100BBA002130D5008D251530FB004B30FC00BE30AE
:100BCA00FD00FD0BE62DFC0BE62DFB0BE62D0000D0
:100BDA000130E2002D200330D3002A2209237008B5
:100BEA00C1007108C2007208C3007308C400F6305D
:100BFA00F4002830F5001C30F6008130F70000219F
:100C0A000030F4000030F5002030F6008230F700A2
:100C1A0052227008CF007108D0007208D100730800
:100C2A00D2007008D3007108D4007208D500730886
:100C3A00D6004B30D7008F230130E2002D2001303F
:100C4A00D3000130D4003830D5008D250130D300CF
:100C5A000830D4004B30D5008D250130D300103038
:100C6A00D400DF30D500F5213F30D300E3214B30EB
:100C7A00E0003E30E10085200B30FB002630FC000E
:100C8A005D30FD00FD0B472EFC0B472EFB0B472E5C
:080C9A0000000000F02D502EB7
:100CEC0021308400203083120313F0005630C500ED
:080CFC000630C6003523080094
:100CAC00733468346F34773469346E346734203479
:080CBC00543465347034003437
:080CC4004E3461344E3400345B
:020CCC000F34E3
:040CCE00303400348A
:080CD20049344E34463400346D
:0C0CDA00743465346D3470343D340034E3
:020CE6000034D8
:040CE800633400343D
:02400E004A2F37
:00000001FF
